:020000040000FA
:100000000C9462000C9405040C94DE030C948A009A
:100010000C948A000C948A000C948A000C948A0038
:100020000C948A000C948A000C948A000C948A0028
:100030000C948A000C948A000C948A000C948A0018
:100040000C9494030C948A000C9452040C942C0489
:100050000C948A000C948A000C948A000C948A00F8
:100060000C948A000C948A000000000024002700F1
:100070002A0000000000250028002B0000000000DE
:1000800023002600290004040404040404040202DA
:100090000202020203030303030301020408102007
:1000A0004080010204081020010204081020000012
:1000B0000008000201000003040700000000000027
:1000C0000000C50611241FBECFEFD8E0DEBFCDBFB4
:1000D00012E0A0E0B1E0E8E4FEE002C005900D927D
:1000E000A03AB107D9F723E0A0EAB2E001C01D921F
:1000F000AC34B207E1F710E0C2E6D0E004C02197CB
:10010000FE010E941407C136D107C9F70E9484047A
:100110000C9422070C940000833081F028F4813085
:1001200099F08230A9F008958730A9F08830C9F09D
:100130008430B1F4809180008F7D03C08091800075
:100140008F7780938000089584B58F7784BD08955C
:1001500084B58F7DFBCF8091B0008F778093B00006
:1001600008958091B0008F7DF9CFCF93DF93282F32
:1001700030E0F901E255FF4F8491F901E656FF4F57
:10018000D491F901EA57FF4FC491CC23A1F081111A
:100190000E948C00EC2FF0E0EE0FFF1FE458FF4FA1
:1001A000A591B491EC91ED2381E090E009F480E019
:1001B000DF91CF91089580E090E0FACF1F93CF9325
:1001C000DF93282F30E0F901E255FF4F8491F901C8
:1001D000E656FF4FD491F901EA57FF4FC491CC2363
:1001E000A9F0162F81110E948C00EC2FF0E0EE0F89
:1001F000FF1FEE58FF4FA591B4918FB7F894EC9183
:10020000111108C0D095DE23DC938FBFDF91CF9111
:100210001F910895DE2BF8CFCF93DF9390E0FC0180
:10022000E656FF4F24918A579F4FFC018491882303
:10023000D1F090E0880F991FFC01E859FF4FA5917C
:10024000B491FC01EE58FF4FC591D491623071F426
:100250009FB7F8943C91822F809583238C93E881FB
:100260002E2B28839FBFDF91CF9108958FB7F894ED
:10027000EC912E2B2C938FBFF6CF3FB7F894809143
:10028000AB029091AC02A091AD02B091AE0226B546
:10029000A89B05C02F3F19F00196A11DB11D3FBFBE
:1002A000BA2FA92F982F8827BC01CD01620F711D8D
:1002B000811D911D42E0660F771F881F991F4A9587
:1002C000D1F708958F929F92AF92BF92CF92DF9213
:1002D000EF92FF924B015C010E943D016B017C019A
:1002E0000E943D016C197D098E099F09683E73408B
:1002F00081059105A8F321E0821A9108A108B108AF
:1003000088EEC80E83E0D81EE11CF11C8114910414
:10031000A104B10429F7FF90EF90DF90CF90BF9038
:10032000AF909F908F900895CF9382E00E94B50088
:10033000C82F83E00E94B500C81314C08091A302A7
:100340009091A40209974CF48091A3029091A40289
:1003500001969093A4028093A30281E08093A5026A
:10036000CF9108958091A3029091A40218161906C6
:10037000A4F78091A3029091A4020197EACF089577
:10038000AF92BF92CF92DF92EF92FF920F931F93A3
:10039000CF93DF936C017B018B01040F151FEB01E1
:1003A0005E01AE18BF08C017D10759F06991D60198
:1003B000ED91FC910190F081E02DC6010995892B0A
:1003C00079F7C501DF91CF911F910F91FF90EF90C9
:1003D000DF90CF90BF90AF900895FC01538D448D76
:1003E000252F30E0842F90E0821B930B541710F0E0
:1003F000CF96089501970895FC01918D828D9817ED
:1004000061F0A28DAE0FBF2FB11D5D968C91928DC4
:100410009F5F9F73928F90E008958FEF9FEF0895F5
:10042000FC01918D828D981731F0828DE80FF11DBE
:10043000858D90E008958FEF9FEF0895FC01918DD9
:10044000228D892F90E0805C9F4F821B91098F73D2
:10045000992708958FEA92E00E941E0221E0892BDD
:1004600009F420E0822F089580E090E0892B29F0A4
:100470000E942A0281110C9400000895FC01A48DB1
:10048000A80FB92FB11DA35ABF4F2C91848D90E0B6
:1004900001968F739927848FA689B7892C93A08999
:1004A000B1898C91837080648C93938D848D981323
:1004B00006C00288F389E02D80818F7D80830895B6
:1004C000EF92FF920F931F93CF93DF93EC0181E0A4
:1004D000888F9B8D8C8D98131AC0E889F98980814B
:1004E00085FF15C09FB7F894EE89FF896083E8897E
:1004F000F98980818370806480839FBF81E090E070
:10050000DF91CF911F910F91FF90EF900895F62EFC
:100510000B8D10E00F5F1F4F0F731127E02E8C8D96
:100520008E110CC00FB607FCFACFE889F9898081DB
:1005300085FFF5CFCE010E943E02F1CFEB8DEC0F8F
:10054000FD2FF11DE35AFF4FF0829FB7F8940B8FF8
:10055000EA89FB8980818062CFCFCF93DF93EC0162
:10056000888D8823B9F0AA89BB89E889F9898C919B
:1005700085FD03C0808186FD0DC00FB607FCF7CF57
:100580008C9185FFF2CF808185FFEDCFCE010E9457
:100590003E02E9CFDF91CF910895FC010190002048
:1005A000E9F73197AF01481B590BBC018FEA92E084
:1005B0000C94C0018F929F92AF92BF920F931F93A2
:1005C000CF93DF93CDB7DEB7A1970FB6F894DEBF18
:1005D0000FBECDBF19A2423008F44AE08E010F5D74
:1005E0001F4F842E912CB12CA12CA50194010E94A7
:1005F000F206E62FB901CA01EA30F4F4E05DD80151
:10060000EE938D01232B242B252B79F790E080E0AE
:10061000109719F0CD010E94CD02A1960FB6F89463
:10062000DEBF0FBECDBFDF91CF911F910F91BF9065
:10063000AF909F908F900895E95CE1CFCF93DF93C7
:10064000682F8FEA92E00E946002EC018EE491E054
:100650000E94CD028C0F9D1FDF91CF910895CF9303
:10066000DF930E94CD02EC018EE491E00E94CD0266
:100670008C0F9D1FDF91CF9108950F931F93CF9300
:10068000DF93082F162FD42FC8E06D2F661F662723
:10069000661F802F0E94DE00DD0F61E0812F0E9427
:1006A000DE0060E0812F0E94DE00C15071F7DF9113
:1006B000CF911F910F910895CF93DF93D091A20214
:1006C000C091A00260E08AE00E94DE004D2F69E048
:1006D00088E00E943D034C2F69E088E00E943D03C2
:1006E00061E08AE00E94DE0081E591E00E94CD0297
:1006F0006D2F70E090E080E042E00E94DA0280E638
:1007000091E00E94CD026C2F70E090E080E042E02A
:100710000E94DA0282E791E00E94CD028EE491E02D
:10072000DF91CF910C94CD021F920F920FB60F92D2
:1007300011242F933F938F939F93AF93BF938091F7
:10074000A7029091A802A091A902B091AA023091AB
:10075000A60223E0230F2D3758F50196A11DB11DE8
:100760002093A6028093A7029093A802A093A902C7
:10077000B093AA028091AB029091AC02A091AD021D
:10078000B091AE020196A11DB11D8093AB02909372
:10079000AC02A093AD02B093AE02BF91AF919F9116
:1007A0008F913F912F910F900FBE0F901F90189532
:1007B00026E8230F0296A11DB11DD2CF1F920F92E2
:1007C0000FB60F9211242F933F934F935F936F9324
:1007D0007F938F939F93AF93BF93EF93FF93E0919A
:1007E0000201F09103010995FF91EF91BF91AF9143
:1007F0009F918F917F916F915F914F913F912F9139
:100800000F900FBE0F901F9018951F920F920FB66A
:100810000F9211242F933F934F935F936F937F9386
:100820008F939F93AF93BF93EF93FF93E09100015A
:10083000F09101010995FF91EF91BF91AF919F91C7
:100840008F917F916F915F914F913F912F910F9079
:100850000FBE0F901F9018951F920F920FB60F9218
:1008600011242F933F934F935F936F937F938F93B5
:100870009F93AF93BF93EF93FF938FEA92E00E9411
:100880003E02FF91EF91BF91AF919F918F917F9128
:100890006F915F914F913F912F910F900FBE0F90ED
:1008A0001F9018951F920F920FB60F9211242F933D
:1008B0008F939F93EF93FF93E091BF02F091C0025B
:1008C0008081E091C502F091C60282FD1BC090813B
:1008D0008091C8028F5F8F732091C902821741F007
:1008E000E091C802F0E0E155FD4F958F8093C8027A
:1008F000FF91EF919F918F912F910F900FBE0F90CD
:100900001F9018958081F4CF789484B5826084BD5F
:1009100084B5816084BD85B5826085BD85B5816003
:1009200085BD80916E00816080936E001092810081
:10093000809181008260809381008091810081603C
:1009400080938100809180008160809380008091FD
:10095000B10084608093B1008091B0008160809389
:10096000B00080917A00846080937A0080917A0050
:10097000826080937A0080917A00816080937A000F
:1009800080917A00806880937A001092C100E09193
:10099000BF02F091C00282E08083E091BB02F0913F
:1009A000BC021082E091BD02F091BE0280E1808322
:1009B0001092C702E091C302F091C40286E08083E6
:1009C000E091C102F091C202808180618083E09158
:1009D000C102F091C202808188608083E091C102EF
:1009E000F091C202808180688083E091C102F09121
:1009F000C20280818F7D808361E088E00E940C01CB
:100A000061E089E00E940C0161E08AE00E940C0133
:100A100060E08AE00E94DE0061E084E00E940C0158
:100A200060E084E00E94DE0061E085E00E940C014D
:100A300061E085E00E94DE0060E08AE00E94DE0066
:100A400040E069E088E00E943D0340E069E088E022
:100A50000E943D0361E08AE00E94DE0062E370E0F4
:100A600080E090E00E94620162E082E00E940C015E
:100A700062E083E00E940C0184E991E0909301011F
:100A800080930001809169008C7F81608093690070
:100A9000E89A61E08DE00E940C0160E08DE00E9428
:100AA000DE0062E08EE00E940C0162E08FE00E94B6
:100AB0000C0162E080E10E940C01C6E2D1E01991D4
:100AC00061E0812F0E940C0161E0812F0E94DE0015
:100AD00021E0CA32D20799F78FE891E00E942F03F4
:100AE00080910401882309F493C089EC91E00E946D
:100AF0002F031092A0021092A2020E945C032FE02A
:100B0000422E512C00E010E08091A5028823D9F1FB
:100B1000F894C090A302D090A4021092A5027894F9
:100B2000C601FAE0CF16D10414F089E090E097FFF7
:100B300002C090E080E0865D9E4FFC018081809342
:100B4000A2020E945C0382E492E00E94CD020D2C7E
:100B5000000CEE08FF084AE0C701B601F7FE0DC021
:100B60006DE28FEA92E00E94600266277727CB0150
:100B70006C197D098E099F094AE00E94DA028EE411
:100B800091E00E94CD0296E2C92E91E0D92EC0E0FC
:100B9000F60171906F0160E0872D0E94DE00C201B6
:100BA0000197F1F783E2A82E81E0B82ED0E0F5019D
:100BB00091905F01892D0E94B500892B09F046C0F4
:100BC0006CE070E080E090E00E946201892D0E945C
:100BD000B5004C0161E0872D0E94DE008928B1F547
:100BE000EC2FEE0FEC0FED0FF0E0E95EFE4FC08151
:100BF000E090A102C11137C060E08DE00E94DE00EC
:100C00008091A102882309F479C01092A10276C0D4
:100C100081E690E00E941A07815691098A31910578
:100C200030F48C5C9E4FFC01C081CF3F29F48EEFE5
:100C300091E00E942F03C0E088E292E00E94CD0282
:100C400081E60E941E03C093A00255CFDF5FD33020
:100C500009F0ADCF61E0872D0E94DE00CF5FC43088
:100C600009F096CFC9CF61E08DE00E94DE00CE157D
:100C700009F444C0C093A1028EE492E00E94CD0228
:100C80008C2F0E941E03D0EDDC0F8091040188237D
:100C900099F18FEC8C0F8930D8F480E38C0F90E0C1
:100CA0000E941A07815691098A319105F0F48C5CF3
:100CB0009E4FFC0180818093A002DA30C0F4EC2FBB
:100CC000CC0FFF0BE650FF4F80818093A20211C032
:100CD000C03319F48AE690E0E3CF86E3CA3259F3D1
:100CE0008CE0C33241F380E0E6CF8FEFE4CF109287
:100CF000A2020E945C0302C0DA3008F38FEA92E09D
:100D00000E941E02892B09F18FEA92E00E94FC01E9
:100D10008F7D883461F51092040181E690E00E9495
:100D20001A07815691098A31910530F48C5C9E4FE7
:100D3000FC0180818F3F09F480E08093A0020E9433
:100D40005C038CE592E00E942F036AE070E080E093
:100D500090E00E9462010115110509F4D5CE0E94B0
:100D60002A02882309F4D0CE0E940000CDCE8B3415
:100D700061F781E0809304011092A0021092A20218
:100D80000E945C0386E892E0DECFEFEAF2E0138295
:100D9000128288EE93E0A0E0B0E084839583A6837E
:100DA000B78389E091E09183808385EC90E095871B
:100DB000848784EC90E09787868780EC90E0918B25
:100DC000808B81EC90E0938B828B82EC90E0958B12
:100DD000848B86EC90E0978B868B118E128E138E0F
:100DE000148E0895A1E21A2EAA1BBB1BFD010DC093
:100DF000AA1FBB1FEE1FFF1FA217B307E407F507CB
:100E000020F0A21BB30BE40BF50B661F771F881FA6
:100E1000991F1A9469F760957095809590959B013C
:100E2000AC01BD01CF010895EE0FFF1F0590F491B5
:100E3000E02D09949111089581548A5108F4805E3F
:100E4000855A0895F894FFCFBF01BF01010000004B
:100E5000006002C001ED01AD021E02FC0110023172
:100E600032333435363738392A30230E0F1006071F
:100E70000B0C3F065B4F666D7D077F6F0103091901
:100E8000110B1B130A1A05070D1D150F1F170E1E38
:100E900025273A2D3D350D0A004E756D626572208D
:100EA0007265673A203062002020427261696C6C82
:100EB00065207265673A2030620020202873656ED5
:100EC00074206E756D626572207468656E20627242
:100ED00061696C6C6529005374617274696E672076
:100EE00073696E676C652D62697420646961676EF1
:100EF0006F737469633A2070756C73657320302E5C
:100F00002E352028646F74312E2E646F7436292E8E
:100F1000004B6579706164206D6F64652061637456
:100F20006976653A20627261696C6C652077696CDC
:100F30006C207570646174652066726F6D206B65DE
:100F4000797061642E004368617261637465722018
:100F50006E6F7420666F756E6420E2809420636CFF
:100F6000656172696E6720646973706C61792E00C7
:100F7000446973706C6179696E6720286861726476
:100F80002D636F646564293A2000456E636F646564
:100F900072202D3E20004B65792070726573736559
:100FA000643A2000537769746368656420746F2025
:100FB000686172642D636F64656420444953504CCA
:100FC00041595F43484152206D6F64652E0053774D
:100FD00069746368656420746F206B6579706164FF
:080FE000206D6F64652E000016
:107E0000112484B714BE81FFF0D085E080938100F7
:107E100082E08093C00088E18093C10086E0809377
:107E2000C20080E18093C4008EE0C9D0259A86E02C
:107E300020E33CEF91E0309385002093840096BBD3
:107E4000B09BFECF1D9AA8958150A9F7CC24DD24C4
:107E500088248394B5E0AB2EA1E19A2EF3E0BF2EE7
:107E6000A2D0813461F49FD0082FAFD0023811F036
:107E7000013811F484E001C083E08DD089C08234E0
:107E800011F484E103C0853419F485E0A6D080C0E4
:107E9000853579F488D0E82EFF2485D0082F10E0AE
:107EA000102F00270E291F29000F111F8ED06801E7
:107EB0006FC0863521F484E090D080E0DECF843638
:107EC00009F040C070D06FD0082F6DD080E0C81688
:107ED00080E7D80618F4F601B7BEE895C0E0D1E017
:107EE00062D089930C17E1F7F0E0CF16F0E7DF06D8
:107EF00018F0F601B7BEE89568D007B600FCFDCFD4
:107F0000A601A0E0B1E02C9130E011968C91119780
:107F100090E0982F8827822B932B1296FA010C0160
:107F200087BEE89511244E5F5F4FF1E0A038BF0790
:107F300051F7F601A7BEE89507B600FCFDCF97BE46
:107F4000E89526C08437B1F42ED02DD0F82E2BD052
:107F50003CD0F601EF2C8F010F5F1F4F84911BD097
:107F6000EA94F801C1F70894C11CD11CFA94CF0C13
:107F7000D11C0EC0853739F428D08EE10CD085E9AC
:107F80000AD08FE07ACF813511F488E018D01DD067
:107F900080E101D065CF982F8091C00085FFFCCF94
:107FA0009093C60008958091C00087FFFCCF809118
:107FB000C00084FD01C0A8958091C6000895E0E648
:107FC000F0E098E1908380830895EDDF803219F02E
:107FD00088E0F5DFFFCF84E1DECF1F93182FE3DFCA
:107FE0001150E9F7F2DF1F91089580E0E8DFEE27F6
:047FF000FF270994CA
:027FFE00040479
:00000001FF
