:020000040000FA
:100000000C9462000C94F7030C94D0030C948A00B7
:100010000C948A000C948A000C948A000C948A0038
:100020000C948A000C948A000C948A000C948A0028
:100030000C948A000C948A000C948A000C948A0018
:100040000C9486030C948A000C9444040C941E04B3
:100050000C948A000C948A000C948A000C948A00F8
:100060000C948A000C948A000000000024002700F1
:100070002A0000000000250028002B0000000000DE
:1000800023002600290004040404040404040202DA
:100090000202020203030303030301020408102007
:1000A0004080010204081020010204081020000012
:1000B0000008000201000003040700000000000027
:1000C00000005F0611241FBECFEFD8E0DEBFCDBF1A
:1000D00012E0A0E0B1E0ECE7FDE002C005900D9277
:1000E000A632B107D9F722E0A6E2B2E001C01D9224
:1000F000A23DB207E1F710E0C2E6D0E004C02197CC
:10010000FE010E94AE06C136D107C9F70E947604EF
:100110000C94BC060C940000833081F028F48130EC
:1001200099F08230A9F008958730A9F08830C9F09D
:100130008430B1F4809180008F7D03C08091800075
:100140008F7780938000089584B58F7784BD08955C
:1001500084B58F7DFBCF8091B0008F778093B00006
:1001600008958091B0008F7DF9CFCF93DF93282F32
:1001700030E0F901E255FF4F8491F901E656FF4F57
:10018000D491F901EA57FF4FC491CC23A1F081111A
:100190000E948C00EC2FF0E0EE0FFF1FE458FF4FA1
:1001A000A591B491EC91ED2381E090E009F480E019
:1001B000DF91CF91089580E090E0FACF1F93CF9325
:1001C000DF93282F30E0F901E255FF4F8491F901C8
:1001D000E656FF4FD491F901EA57FF4FC491CC2363
:1001E000A9F0162F81110E948C00EC2FF0E0EE0F89
:1001F000FF1FEE58FF4FA591B4918FB7F894EC9183
:10020000111108C0D095DE23DC938FBFDF91CF9111
:100210001F910895DE2BF8CFCF93DF9390E0FC0180
:10022000E656FF4F24918A579F4FFC018491882303
:10023000D1F090E0880F991FFC01E859FF4FA5917C
:10024000B491FC01EE58FF4FC591D491623071F426
:100250009FB7F8943C91822F809583238C93E881FB
:100260002E2B28839FBFDF91CF9108958FB7F894ED
:10027000EC912E2B2C938FBFF6CF3FB7F894809143
:10028000310290913202A0913302B091340226B52E
:10029000A89B05C02F3F19F00196A11DB11D3FBFBE
:1002A000BA2FA92F982F8827BC01CD01620F711D8D
:1002B000811D911D42E0660F771F881F991F4A9587
:1002C000D1F708958F929F92AF92BF92CF92DF9213
:1002D000EF92FF924B015C010E943D016B017C019A
:1002E0000E943D016C197D098E099F09683E73408B
:1002F00081059105A8F321E0821A9108A108B108AF
:1003000088EEC80E83E0D81EE11CF11C8114910414
:10031000A104B10429F7FF90EF90DF90CF90BF9038
:10032000AF909F908F900895CF9382E00E94B50088
:10033000C82F83E00E94B500C81314C08091290221
:1003400090912A0209974CF48091290290912A02F7
:10035000019690932A028093290281E080932B02D8
:10036000CF9108958091290290912A0218161906BA
:10037000A4F78091290290912A020197EACF08956B
:10038000AF92BF92CF92DF92EF92FF920F931F93A3
:10039000CF93DF936C017B018B01040F151FEB01E1
:1003A0005E01AE18BF08C017D10759F06991D60198
:1003B000ED91FC910190F081E02DC6010995892B0A
:1003C00079F7C501DF91CF911F910F91FF90EF90C9
:1003D000DF90CF90BF90AF900895FC01538D448D76
:1003E000252F30E0842F90E0821B930B541710F0E0
:1003F000CF96089501970895FC01918D828D9817ED
:1004000061F0A28DAE0FBF2FB11D5D968C91928DC4
:100410009F5F9F73928F90E008958FEF9FEF0895F5
:10042000FC01918D828D981731F0828DE80FF11DBE
:10043000858D90E008958FEF9FEF0895FC01918DD9
:10044000228D892F90E0805C9F4F821B91098F73D2
:100450009927089585E392E00E941E0221E0892BEE
:1004600009F420E0822F089580E090E0892B29F0A4
:100470000E942A0281110C9400000895FC01A48DB1
:10048000A80FB92FB11DA35ABF4F2C91848D90E0B6
:1004900001968F739927848FA689B7892C93A08999
:1004A000B1898C91837080648C93938D848D981323
:1004B00006C00288F389E02D80818F7D80830895B6
:1004C000EF92FF920F931F93CF93DF93EC0181E0A4
:1004D000888F9B8D8C8D98131AC0E889F98980814B
:1004E00085FF15C09FB7F894EE89FF896083E8897E
:1004F000F98980818370806480839FBF81E090E070
:10050000DF91CF911F910F91FF90EF900895F62EFC
:100510000B8D10E00F5F1F4F0F731127E02E8C8D96
:100520008E110CC00FB607FCFACFE889F9898081DB
:1005300085FFF5CFCE010E943E02F1CFEB8DEC0F8F
:10054000FD2FF11DE35AFF4FF0829FB7F8940B8FF8
:10055000EA89FB8980818062CFCFCF93DF93EC0162
:10056000888D8823B9F0AA89BB89E889F9898C919B
:1005700085FD03C0808186FD0DC00FB607FCF7CF57
:100580008C9185FFF2CF808185FFEDCFCE010E9457
:100590003E02E9CFDF91CF910895FC010190002048
:1005A000E9F73197AF01481B590BBC0185E392E095
:1005B0000C94C0018F929F92AF92BF920F931F93A2
:1005C000CF93DF93CDB7DEB7A1970FB6F894DEBF18
:1005D0000FBECDBF19A2423008F44AE08E010F5D74
:1005E0001F4F842E912CB12CA12CA50194010E94A7
:1005F0008C06E62FB901CA01EA30F4F4E05DD801B7
:10060000EE938D01232B242B252B79F790E080E0AE
:10061000109719F0CD010E94CD02A1960FB6F89463
:10062000DEBF0FBECDBFDF91CF911F910F91BF9065
:10063000AF909F908F900895E95CE1CFCF93DF93C7
:10064000682F85E392E00E946002EC018DE491E066
:100650000E94CD028C0F9D1FDF91CF9108950F93C3
:100660001F93CF93DF93082F162FD42FC8E06D2F41
:10067000661F6627661F802F0E94DE00DD0F61E087
:10068000812F0E94DE0060E0812F0E94DE00C150B9
:1006900071F7DF91CF911F910F910895CF93DF9361
:1006A000D0912802C091260260E08AE00E94DE001C
:1006B0004D2F69E088E00E942F034C2F69E088E00D
:1006C0000E942F0361E08AE00E94DE0080E591E055
:1006D0000E94CD026D2F70E090E080E042E00E9429
:1006E000DA028FE591E00E94CD026C2F70E090E07D
:1006F00080E042E00E94DA0281E791E00E94CD02B0
:100700008DE491E0DF91CF910C94CD021F920F9276
:100710000FB60F9211242F933F938F939F93AF9314
:10072000BF9380912D0290912E02A0912F02B09143
:10073000300230912C0223E0230F2D3758F501961B
:10074000A11DB11D20932C0280932D0290932E02A7
:10075000A0932F02B0933002809131029091320227
:10076000A0913302B09134020196A11DB11D809376
:10077000310290933202A0933302B0933402BF91BE
:10078000AF919F918F913F912F910F900FBE0F903E
:100790001F90189526E8230F0296A11DB11DD2CFF8
:1007A0001F920F920FB60F9211242F933F934F93E6
:1007B0005F936F937F938F939F93AF93BF93EF93C9
:1007C000FF93E0910201F09103010995FF91EF91F0
:1007D000BF91AF919F918F917F916F915F914F9159
:1007E0003F912F910F900FBE0F901F9018951F9261
:1007F0000F920FB60F9211242F933F934F935F9355
:100800006F937F938F939F93AF93BF93EF93FF93D8
:10081000E0910001F09101010995FF91EF91BF91E5
:10082000AF919F918F917F916F915F914F913F9188
:100830002F910F900FBE0F901F9018951F920F923F
:100840000FB60F9211242F933F934F935F936F93A3
:100850007F938F939F93AF93BF93EF93FF9385E322
:1008600092E00E943E02FF91EF91BF91AF919F9164
:100870008F917F916F915F914F913F912F910F9049
:100880000FBE0F901F9018951F920F920FB60F92E8
:1008900011242F938F939F93EF93FF93E091450241
:1008A000F09146028081E0914B02F0914C0282FD72
:1008B0001BC0908180914E028F5F8F7320914F02F9
:1008C000821741F0E0914E02F0E0EB5CFD4F958F16
:1008D00080934E02FF91EF919F918F912F910F90F6
:1008E0000FBE0F901F9018958081F4CF789484B537
:1008F000826084BD84B5816084BD85B5826085BD1C
:1009000085B5816085BD80916E00816080936E00A9
:10091000109281008091810082608093810080919B
:10092000810081608093810080918000816080934C
:1009300080008091B10084608093B1008091B0000C
:1009400081608093B00080917A00846080937A0007
:1009500080917A00826080937A0080917A00816031
:1009600080937A0080917A00806880937A00109258
:10097000C100E0914502F091460282E08083E0915F
:100980004102F09142021082E0914302F091440250
:1009900080E1808310924D02E0914902F0914A0279
:1009A00086E08083E0914702F09148028081806177
:1009B0008083E0914702F0914802808188608083C3
:1009C000E0914702F0914802808180688083E09145
:1009D0004702F091480280818F7D808361E088E04A
:1009E0000E940C0161E089E00E940C0161E08AE054
:1009F0000E940C0160E08AE00E94DE0061E084E079
:100A00000E940C0160E084E00E94DE0061E085E06D
:100A10000E940C0161E085E00E94DE0060E08AE057
:100A20000E94DE0040E069E088E00E942F0340E081
:100A300069E088E00E942F0361E08AE00E94DE0006
:100A400062E370E080E090E00E94620162E082E098
:100A50000E940C0162E083E00E940C0184E991E0B5
:100A60009093010180930001809169008C7F8160E7
:100A700080936900E89A61E08DE00E940C0160E0DB
:100A80008DE00E94DE0062E08EE00E940C0162E0D8
:100A90008FE00E940C0162E080E10E940C01CFE334
:100AA000D1E0199161E0812F0E940C0161E0812F5A
:100AB0000E94DE0021E0C334D20799F78EE891E06E
:100AC0000E94CD028DE491E00E94CD0281E690E08B
:100AD0000E94B406815691098A31910530F48A5EEC
:100AE0009E4FFC01C081CF3F49F488EC91E00E9409
:100AF000CD028DE491E00E94CD02C0E082EF91E052
:100B00000E94CD0281E60E941E03C09326028091BE
:100B1000290290912A028A30910514F089E090E030
:100B200097FF02C090E080E08D5B9E4FFC018081CA
:100B3000809328020E944E030FE010E020E0E22E96
:100B400020E0F22E80912B028823D9F1F894809036
:100B5000290290902A0210922B027894C401FAE0A4
:100B60008F16910414F089E090E097FF02C090E0A6
:100B700080E08D5B9E4FFC018081809328020E9463
:100B80004E038CE092E00E94CD02092C000CAA08D2
:100B9000BB084AE0C501B401B7FE0DC06DE285E3B4
:100BA00092E00E94600266277727CB0168197909D5
:100BB0008A099B094AE00E94DA028DE491E00E94D2
:100BC000CD029FE3A92E91E0B92EC0E0F50171900E
:100BD0005F0160E0872D0E94DE00C8010197F1F7F8
:100BE0008CE3882E81E0982ED0E0F401D1904F0163
:100BF0008D2D0E94B500892B39F56CE070E080E006
:100C000090E00E9462018D2D0E94B5006C0161E0B0
:100C1000872D0E94DE00CD28B9F4EC2FEE0FEC0FEB
:100C2000ED0FF0E0E05DFE4FC081D0912702C111D1
:100C300017C060E08DE00E94DE00809127028823CB
:100C400061F11092270229C0DF5FD33071F661E0B5
:100C5000872D0E94DE00CF5FC43009F0B7CFE9CF07
:100C600061E08DE00E94DE00DC17B9F0C09327023E
:100C700088E192E00E94CD028C2F0E941E0380ED3D
:100C80008C0F8A3050F4EC2FCC0FFF0BED5EFE4F33
:100C90008081809328020E944E036AE070E080E029
:100CA00090E00E946201E114F10409F44BCF0E942C
:100CB0002A02882309F446CF0E94000043CFE5E3CF
:100CC000F2E01382128288EE93E0A0E0B0E0848329
:100CD0009583A683B78388E091E09183808385EC38
:100CE00090E09587848784EC90E09787868780ECF6
:100CF00090E0918B808B81EC90E0938B828B82ECE7
:100D000090E0958B848B86EC90E0978B868B118E90
:100D1000128E138E148E0895A1E21A2EAA1BBB1BED
:100D2000FD010DC0AA1FBB1FEE1FFF1FA217B307B7
:100D3000E407F50720F0A21BB30BE40BF50B661FCD
:100D4000771F881F991F1A9469F760957095809591
:100D500090959B01AC01BD01CF010895EE0FFF1FDF
:100D60000590F491E02D09949111089581548A51D0
:100D700008F4805E855A0895F894FFCFBF01BF0143
:100D8000000000006002C001ED01AD021E02FC0186
:100D9000100201030919110B1B130A1A05070D1D77
:100DA000150F1F170E1E25273A2D3D3531323334CE
:100DB00035363738392A30230E0F1006070B0C3F13
:100DC000065B4F666D7D077F6F0D0A004E756D6285
:100DD0006572207265673A2030620020204272619D
:100DE000696C6C65207265673A20306200202028AB
:100DF00073656E74206E756D626572207468656EC1
:100E000020627261696C6C65290053746172746947
:100E10006E672073696E676C652D62697420646902
:100E200061676E6F737469633A2070756C73657374
:100E300020302E2E352028646F74312E2E646F746E
:100E400036292E00436861726163746572206E6F8B
:100E50007420666F756E6420E2809420636C656117
:100E600072696E6720646973706C61792E004469E1
:100E700073706C6179696E672028686172642D6394
:100E80006F646564293A2000456E636F6465722063
:100E90002D3E20004B657920707265737365643A4E
:020EA000200030
:107E0000112484B714BE81FFF0D085E080938100F7
:107E100082E08093C00088E18093C10086E0809377
:107E2000C20080E18093C4008EE0C9D0259A86E02C
:107E300020E33CEF91E0309385002093840096BBD3
:107E4000B09BFECF1D9AA8958150A9F7CC24DD24C4
:107E500088248394B5E0AB2EA1E19A2EF3E0BF2EE7
:107E6000A2D0813461F49FD0082FAFD0023811F036
:107E7000013811F484E001C083E08DD089C08234E0
:107E800011F484E103C0853419F485E0A6D080C0E4
:107E9000853579F488D0E82EFF2485D0082F10E0AE
:107EA000102F00270E291F29000F111F8ED06801E7
:107EB0006FC0863521F484E090D080E0DECF843638
:107EC00009F040C070D06FD0082F6DD080E0C81688
:107ED00080E7D80618F4F601B7BEE895C0E0D1E017
:107EE00062D089930C17E1F7F0E0CF16F0E7DF06D8
:107EF00018F0F601B7BEE89568D007B600FCFDCFD4
:107F0000A601A0E0B1E02C9130E011968C91119780
:107F100090E0982F8827822B932B1296FA010C0160
:107F200087BEE89511244E5F5F4FF1E0A038BF0790
:107F300051F7F601A7BEE89507B600FCFDCF97BE46
:107F4000E89526C08437B1F42ED02DD0F82E2BD052
:107F50003CD0F601EF2C8F010F5F1F4F84911BD097
:107F6000EA94F801C1F70894C11CD11CFA94CF0C13
:107F7000D11C0EC0853739F428D08EE10CD085E9AC
:107F80000AD08FE07ACF813511F488E018D01DD067
:107F900080E101D065CF982F8091C00085FFFCCF94
:107FA0009093C60008958091C00087FFFCCF809118
:107FB000C00084FD01C0A8958091C6000895E0E648
:107FC000F0E098E1908380830895EDDF803219F02E
:107FD00088E0F5DFFFCF84E1DECF1F93182FE3DFCA
:107FE0001150E9F7F2DF1F91089580E0E8DFEE27F6
:047FF000FF270994CA
:027FFE00040479
:00000001FF
