:100000000C9462000C94E6030C94BF030C948A00D9
:100010000C948A000C948A000C948A000C948A0038
:100020000C948A000C948A000C948A000C948A0028
:100030000C948A000C948A000C948A000C948A0018
:100040000C9475030C948A000C9433040C940D04E6
:100050000C948A000C948A000C948A000C948A00F8
:100060000C948A000C948A000000000024002700F1
:100070002A0000000000250028002B0000000000DE
:1000800023002600290004040404040404040202DA
:100090000202020203030303030301020408102007
:1000A0004080010204081020010204081020000012
:1000B0000008000201000003040700000000000027
:1000C0000000C00511241FBECFEFD8E0DEBFCDBFBA
:1000D00012E0A0E0B1E0EEE3FCE002C005900D927A
:1000E000A630B107D9F722E0A6E0B2E001C01D9228
:1000F000A13BB207E1F710E0C2E6D0E004C02197CF
:10010000FE010E940F06C136D107C9F70E9465049F
:100110000C941D060C940000833081F028F481308B
:1001200099F08230A9F008958730A9F08830C9F09D
:100130008430B1F4809180008F7D03C08091800075
:100140008F7780938000089584B58F7784BD08955C
:1001500084B58F7DFBCF8091B0008F778093B00006
:1001600008958091B0008F7DF9CFCF93DF93282F32
:1001700030E0F901E255FF4F8491F901E656FF4F57
:10018000D491F901EA57FF4FC491CC23A1F081111A
:100190000E948C00EC2FF0E0EE0FFF1FE458FF4FA1
:1001A000A591B491EC91ED2381E090E009F480E019
:1001B000DF91CF91089580E090E0FACF1F93CF9325
:1001C000DF93282F30E0F901E255FF4F8491F901C8
:1001D000E656FF4FD491F901EA57FF4FC491CC2363
:1001E000A9F0162F81110E948C00EC2FF0E0EE0F89
:1001F000FF1FEE58FF4FA591B4918FB7F894EC9183
:10020000111108C0D095DE23DC938FBFDF91CF9111
:100210001F910895DE2BF8CFCF93DF9390E0FC0180
:10022000E656FF4F24918A579F4FFC018491882303
:10023000D1F090E0880F991FFC01E859FF4FA5917C
:10024000B491FC01EE58FF4FC591D491623071F426
:100250009FB7F8943C91822F809583238C93E881FB
:100260002E2B28839FBFDF91CF9108958FB7F894ED
:10027000EC912E2B2C938FBFF6CF3FB7F894809143
:10028000100290911102A0911202B091130226B5B2
:10029000A89B05C02F3F19F00196A11DB11D3FBFBE
:1002A000BA2FA92F982F8827BC01CD01620F711D8D
:1002B000811D911D42E0660F771F881F991F4A9587
:1002C000D1F708958F929F92AF92BF92CF92DF9213
:1002D000EF92FF924B015C010E943D016B017C019A
:1002E0000E943D016C197D098E099F09683E73408B
:1002F00081059105A8F321E0821A9108A108B108AF
:1003000088EEC80E83E0D81EE11CF11C8114910414
:10031000A104B10429F7FF90EF90DF90CF90BF9038
:10032000AF909F908F900895CF9382E00E94B50088
:10033000C82F83E00E94B500C81314C08091080242
:100340009091090209974CF480910802909109025A
:100350000196909309028093080281E080930A023B
:10036000CF910895809108029091090218161906FC
:10037000A4F780910802909109020197EACF0895AD
:10038000AF92BF92CF92DF92EF92FF920F931F93A3
:10039000CF93DF936C017B018B01040F151FEB01E1
:1003A0005E01AE18BF08C017D10759F06991D60198
:1003B000ED91FC910190F081E02DC6010995892B0A
:1003C00079F7C501DF91CF911F910F91FF90EF90C9
:1003D000DF90CF90BF90AF900895FC01538D448D76
:1003E000252F30E0842F90E0821B930B541710F0E0
:1003F000CF96089501970895FC01918D828D9817ED
:1004000061F0A28DAE0FBF2FB11D5D968C91928DC4
:100410009F5F9F73928F90E008958FEF9FEF0895F5
:10042000FC01918D828D981731F0828DE80FF11DBE
:10043000858D90E008958FEF9FEF0895FC01918DD9
:10044000228D892F90E0805C9F4F821B91098F73D2
:100450009927089584E192E00E941E0221E0892BF1
:1004600009F420E0822F089580E090E0892B29F0A4
:100470000E942A0281110C9400000895FC01A48DB1
:10048000A80FB92FB11DA35ABF4F2C91848D90E0B6
:1004900001968F739927848FA689B7892C93A08999
:1004A000B1898C91837080648C93938D848D981323
:1004B00006C00288F389E02D80818F7D80830895B6
:1004C000EF92FF920F931F93CF93DF93EC0181E0A4
:1004D000888F9B8D8C8D98131AC0E889F98980814B
:1004E00085FF15C09FB7F894EE89FF896083E8897E
:1004F000F98980818370806480839FBF81E090E070
:10050000DF91CF911F910F91FF90EF900895F62EFC
:100510000B8D10E00F5F1F4F0F731127E02E8C8D96
:100520008E110CC00FB607FCFACFE889F9898081DB
:1005300085FFF5CFCE010E943E02F1CFEB8DEC0F8F
:10054000FD2FF11DE35AFF4FF0829FB7F8940B8FF8
:10055000EA89FB8980818062CFCFCF93DF93EC0162
:10056000888D8823B9F0AA89BB89E889F9898C919B
:1005700085FD03C0808186FD0DC00FB607FCF7CF57
:100580008C9185FFF2CF808185FFEDCFCE010E9457
:100590003E02E9CFDF91CF910895FC010190002048
:1005A000E9F73197AF01481B590BBC0184E192E098
:1005B0000C94C0018F929F92AF92BF920F931F93A2
:1005C000CF93DF93CDB7DEB7A1970FB6F894DEBF18
:1005D0000FBECDBF19A2423008F44AE08E010F5D74
:1005E0001F4F842E912CB12CA12CA50194010E94A7
:1005F000ED05E62FB901CA01EA30F4F4E05DD80157
:10060000EE938D01232B242B252B79F790E080E0AE
:10061000109719F0CD010E94CD02A1960FB6F89463
:10062000DEBF0FBECDBFDF91CF911F910F91BF9065
:10063000AF909F908F900895E95CE1CF0F931F9347
:10064000CF93DF93082F162FD42FC8E06D2F661F8E
:100650006627661F802F0E94DE00DD0F61E0812F7C
:100660000E94DE0060E0812F0E94DE00C15071F721
:10067000DF91CF911F910F910895CF93DF93D09188
:100680000702C091060260E08AE00E94DE004D2F62
:1006900069E088E00E941E034C2F69E088E00E9418
:1006A0001E0361E08AE00E94DE008AE391E00E947E
:1006B000CD026D2F70E090E080E042E00E94DA020F
:1006C00089E491E00E94CD026C2F70E090E080E020
:1006D00042E00E94DA028BE591E00E94CD0288E7B9
:1006E00091E0DF91CF910C94CD021F920F920FB643
:1006F0000F9211242F933F938F939F93AF93BF93A8
:1007000080910C0290910D02A0910E02B0910F0207
:1007100030910B0223E0230F2D3758F50196A11DD0
:10072000B11D20930B0280930C0290930D02A093B5
:100730000E02B0930F028091100290911102A091CD
:100740001202B09113020196A11DB11D80931002F7
:1007500090931102A0931202B0931302BF91AF9134
:100760009F918F913F912F910F900FBE0F901F90EF
:10077000189526E8230F0296A11DB11DD2CF1F9216
:100780000F920FB60F9211242F933F934F935F93C5
:100790006F937F938F939F93AF93BF93EF93FF9349
:1007A000E0910201F09103010995FF91EF91BF9152
:1007B000AF919F918F917F916F915F914F913F91F9
:1007C0002F910F900FBE0F901F9018951F920F92B0
:1007D0000FB60F9211242F933F934F935F936F9314
:1007E0007F938F939F93AF93BF93EF93FF93E0918A
:1007F0000001F09101010995FF91EF91BF91AF9137
:100800009F918F917F916F915F914F913F912F9128
:100810000F900FBE0F901F9018951F920F920FB65A
:100820000F9211242F933F934F935F936F937F9376
:100830008F939F93AF93BF93EF93FF9384E192E0E5
:100840000E943E02FF91EF91BF91AF919F918F91D6
:100850007F916F915F914F913F912F910F900FBEBC
:100860000F901F9018951F920F920FB60F921124A0
:100870002F938F939F93EF93FF93E0912402F09136
:1008800025028081E0912A02F0912B0282FD1BC09B
:10089000908180912D028F5F8F7320912E0282179D
:1008A00041F0E0912D02F0E0EC5EFD4F958F8093DA
:1008B0002D02FF91EF919F918F912F910F900FBE7D
:1008C0000F901F9018958081F4CF789484B5826042
:1008D00084BD84B5816084BD85B5826085BD85B5E4
:1008E000816085BD80916E00816080936E00109262
:1008F00081008091810082608093810080918100DD
:10090000816080938100809180008160809380006D
:100910008091B10084608093B1008091B0008160CB
:100920008093B00080917A00846080937A008091F7
:100930007A00826080937A0080917A00816080934F
:100940007A0080917A00806880937A001092C100CA
:10095000E0912402F091250282E08083E091200260
:10096000F09121021082E0912202F091230280E1B5
:10097000808310922C02E0912802F091290286E0F7
:100980008083E0912602F09127028081806180833C
:10099000E0912602F0912702808188608083E091B7
:1009A0002602F0912702808180688083E0912602F0
:1009B000F091270280818F7D808361E088E00E9432
:1009C0000C0161E089E00E940C0161E08AE00E9474
:1009D0000C0160E08AE00E94DE0061E084E00E9499
:1009E0000C0160E084E00E94DE0061E085E00E948E
:1009F0000C0161E085E00E94DE0060E08AE00E9478
:100A0000DE0040E069E088E00E941E0340E069E00B
:100A100088E00E941E0361E08AE00E94DE0062E33B
:100A200070E080E090E00E94620162E082E00E945B
:100A30000C0162E083E00E940C0184E991E0909354
:100A4000010180930001809169008C7F8160809317
:100A50006900E89A8BE791E00E94CD0288E791E077
:100A60000E94CD0281E690E00E9415068156910910
:100A70008A31910530F48A5E9E4FFC01C081CF3FE0
:100A800049F485EB91E00E94CD0288E791E00E9455
:100A9000CD02C0E08FED91E00E94CD0261E684E1DD
:100AA00092E00E94600288E791E00E94CD02C0932C
:100AB000060280910802909109028A30910514F093
:100AC00089E090E097FF02C090E080E0805D9E4F5B
:100AD000FC018081809307020E943D03C0E0D0E0CA
:100AE00080910A028823D9F1F894C0900802D0902E
:100AF000090210920A027894C601FAE0CF16D104D6
:100B000014F089E090E097FF02C090E080E0805D03
:100B10009E4FFC018081809307020E943D0389EF74
:100B200091E00E94CD020D2C000CEE08FF084AE077
:100B3000C701B601F7FE0DC06DE284E192E00E94AC
:100B4000600266277727CB016C197D098E099F0902
:100B50004AE00E94DA0288E791E00E94CD026AE052
:100B600070E080E090E00E946201209709F4B8CF25
:100B70000E942A02882309F4B3CF0E940000B0CF5C
:100B8000E4E1F2E01382128288EE93E0A0E0B0E0AC
:100B900084839583A683B78388E091E091838083E3
:100BA00085EC90E09587848784EC90E09787868732
:100BB00080EC90E0918B808B81EC90E0938B828B2A
:100BC00082EC90E0958B848B86EC90E0978B868B03
:100BD000118E128E138E148E0895A1E21A2EAA1B66
:100BE000BB1BFD010DC0AA1FBB1FEE1FFF1FA217DD
:100BF000B307E407F50720F0A21BB30BE40BF50BDA
:100C0000661F771F881F991F1A9469F76095709562
:100C1000809590959B01AC01BD01CF010895EE0F29
:100C2000FF1F0590F491E02D0994911108958154CE
:0E0C30008A5108F4805E855A0895F894FFCF2B
:100C3E00BF01BF01000000006002C001ED01AD0266
:100C4E001E02FC01100201030919110B1B130A1AD3
:100C5E0005070D1D150F1F170E1E25273A2D3D35A5
:100C6E003F065B4F666D7D077F6F4E756D626572D9
:100C7E00207265673A203062002020427261696CF2
:100C8E006C65207265673A203062002020287365FB
:100C9E006E74206E756D626572207468656E20626A
:100CAE007261696C6C6529000D0A0053746172746F
:100CBE00696E672073696E676C652D626974206456
:100CCE006961676E6F737469633A2070756C7365D2
:100CDE007320302E2E352028646F74312E2E646FC3
:100CEE007436292E00436861726163746572206EDA
:100CFE006F7420666F756E6420E2809420636C655D
:100D0E006172696E6720646973706C61792E00443C
:100D1E006973706C6179696E672028686172642DE1
:100D2E00636F646564293A2000456E636F64657273
:060D3E00202D3E20000004
:00000001FF
