:020000040000FA
:100000000C945D000C9485000C9485000C94850084
:100010000C9485000C9485000C9485000C9485004C
:100020000C9485000C9485000C9485000C9485003C
:100030000C9485000C9485000C9485000C9485002C
:100040000C9482020C9485000C94F2020C94CC0265
:100050000C9485000C9485000C9485000C9485000C
:100060000C9485000C94850000000008000201003B
:100070000003040700000000000000000000000072
:10008000250028002B0000000000240027002A0083
:10009000040404040404040402020202020203032E
:1000A0000303030301020408102040800102040836
:1000B0001020010204081020460411241FBECFEFB7
:1000C000D8E0DEBFCDBF11E0A0E0B1E0E6E0F9E0AE
:1000D00002C005900D92AE3BB107D9F722E0AEEB1E
:1000E000B1E001C01D92A436B207E1F710E0CDE502
:1000F000D0E004C02197FE010E947304CC35D107E3
:10010000C9F70E9424030C9481040C94000090E031
:10011000FC01EC55FF4F249180579F4FFC018491C7
:10012000882399F090E0880F991FFC01EA57FF4F50
:10013000A591B491FC01E458FF4F859194918FB73C
:10014000F894EC91E22BEC938FBF089590E0FC01C2
:10015000E859FF4F2491FC01EC55FF4F3491FC010D
:10016000E057FF4FE491EE23C9F0222339F023300A
:1001700001F1A8F4213019F1223029F1F0E0EE0F5D
:10018000FF1FE458FF4FA591B4918FB7F894EC91FD
:10019000611126C030953E233C938FBF08952730D0
:1001A000A9F02830C9F0243049F7809180008F7D74
:1001B00003C0809180008F7780938000DFCF84B56B
:1001C0008F7784BDDBCF84B58F7DFBCF8091B0006E
:1001D0008F778093B000D2CF8091B0008F7DF9CF20
:1001E0003E2BDACF3FB7F8948091C3019091C401C0
:1001F000A091C501B091C60126B5A89B05C02F3FAF
:1002000019F00196A11DB11D3FBFBA2FA92F982F3C
:100210008827BC01CD01620F711D811D911D42E037
:10022000660F771F881F991F4A95D1F708958F92FF
:100230009F92AF92BF92CF92DF92EF92FF924B01CB
:100240005C010E94F2006B017C010E94F2006C19BB
:100250007D098E099F09683E734081059105A8F3C9
:1002600021E0821A9108A108B10888EEC80E83E047
:10027000D81EE11CF11C81149104A104B10429F7DA
:10028000FF90EF90DF90CF90BF90AF909F908F90B6
:100290000895AF92BF92CF92DF92EF92FF920F93A9
:1002A0001F93CF93DF936C017B018B01040F151F0C
:1002B000EB015E01AE18BF08C017D10759F0699174
:1002C000D601ED91FC910190F081E02DC6010995D8
:1002D000892B79F7C501DF91CF911F910F91FF9085
:1002E000EF90DF90CF90BF90AF900895FC01538DB9
:1002F000448D252F30E0842F90E0821B930B541700
:1003000010F0CF96089501970895FC01918D828D8C
:10031000981761F0A28DAE0FBF2FB11D5D968C9125
:10032000928D9F5F9F73928F90E008958FEF9FEF64
:100330000895FC01918D828D981731F0828DE80F20
:10034000F11D858D90E008958FEF9FEF0895FC01DA
:10035000918D228D892F90E0805C9F4F821B9109A7
:100360008F739927089587EC91E00E94A70121E0FF
:10037000892B09F420E0822F089580E090E0892BFA
:1003800029F00E94B30181110C9400000895FC0132
:10039000A48DA80FB92FB11DA35ABF4F2C91848DE6
:1003A00090E001968F739927848FA689B7892C9343
:1003B000A089B1898C91837080648C93938D848D96
:1003C000981306C00288F389E02D80818F7D808399
:1003D0000895EF92FF920F931F93CF93DF93EC0159
:1003E00081E0888F9B8D8C8D98131AC0E889F989DC
:1003F000808185FF15C09FB7F894EE89FF896083DF
:10040000E889F98980818370806480839FBF81E05F
:1004100090E0DF91CF911F910F91FF90EF900895A1
:10042000F62E0B8D10E00F5F1F4F0F731127E02E7C
:100430008C8D8E110CC00FB607FCFACFE889F989B4
:10044000808185FFF5CFCE010E94C701F1CFEB8DF2
:10045000EC0FFD2FF11DE35AFF4FF0829FB7F89488
:100460000B8FEA89FB8980818062CFCFCF93DF93A6
:10047000EC01888D8823B9F0AA89BB89E889F989BC
:100480008C9185FD03C0808186FD0DC00FB607FCF1
:10049000F7CF8C9185FFF2CF808185FFEDCFCE0124
:1004A0000E94C701E9CFDF91CF910895FC0101902F
:1004B0000020E9F73197AF01481B590BBC0187ECCD
:1004C00091E00C9449010F931F93CF93DF93082F72
:1004D000162FD42FC8E06D2F661F6627661F802F4A
:1004E0000E94A600DD0F61E0812F0E94A60060E05F
:1004F000812F0E94A600C15071F7DF91CF911F910B
:100500000F9108951F920F920FB60F9211242F93FF
:100510003F938F939F93AF93BF938091BF0190912F
:10052000C001A091C101B091C2013091BE0123E090
:10053000230F2D3758F50196A11DB11D2093BE0143
:100540008093BF019093C001A093C101B093C201F9
:100550008091C3019091C401A091C501B091C601E1
:100560000196A11DB11D8093C3019093C401A09376
:10057000C501B093C601BF91AF919F918F913F91FB
:100580002F910F900FBE0F901F90189526E8230F04
:100590000296A11DB11DD2CF1F920F920FB60F92DE
:1005A00011242F933F934F935F936F937F938F9378
:1005B0009F93AF93BF93EF93FF9387EC91E00E94DB
:1005C000C701FF91EF91BF91AF919F918F917F9163
:1005D0006F915F914F913F912F910F900FBE0F90B0
:1005E0001F9018951F920F920FB60F9211242F9300
:1005F0008F939F93EF93FF93E091D701F091D801F0
:100600008081E091DD01F091DE0182FD1BC09081CF
:100610008091E0018F5F8F732091E101821741F09B
:10062000E091E001F0E0E953FE4F958F8093E00107
:10063000FF91EF919F918F912F910F900FBE0F908F
:100640001F9018958081F4CFCF93DF93CDB7DEB79D
:10065000A1970FB6F894DEBF0FBECDBF789484B5D6
:10066000826084BD84B5816084BD85B5826085BDAE
:1006700085B5816085BD80916E00816080936E003C
:10068000109281008091810082608093810080912E
:1006900081008160809381008091800081608093DF
:1006A00080008091B10084608093B1008091B0009F
:1006B00081608093B00080917A00846080937A009A
:1006C00080917A00826080937A0080917A008160C4
:1006D00080937A0080917A00806880937A001092EB
:1006E000C100E091D701F091D80182E08083E091D0
:1006F000D301F091D4011082E091D501F091D6019F
:1007000080E180831092DF01E091DB01F091DC0158
:1007100086E08083E091D901F091DA0180818061E7
:100720008083E091D901F091DA0180818860808333
:10073000E091D901F091DA01808180688083E091B5
:10074000D901F091DA0180818F7D808388E00E9459
:10075000870089E00E9487008AE00E94870060E0AD
:100760008AE00E94A60084E00E94870060E084E0A6
:100770000E94A60085E00E94870061E085E00E945B
:10078000A60060E08AE00E94A60040E069E088E000
:100790000E94630261E08AE00E94A60062E370E0CA
:1007A00080E090E00E9417018CE291E00E945602E6
:1007B00086E691E00E9456028AE790E00E94790462
:1007C000815691098A31910530F48E5E9E4FFC016D
:1007D00010811F3F49F489E691E00E94560286E6A7
:1007E00091E00E94560210E083E991E00E945602D7
:1007F0006AE787EC91E00E94E90186E691E00E94B9
:10080000560260E08AE00E94A600412F69E088E07D
:100810000E94630261E08AE00E94A6008DEA91E0F6
:100820000E945602412F50E070E060E019A2CE0114
:1008300081968A019B010170112722273327769523
:10084000679557954795005DFC010293CF014115CF
:1008500051056105710569F7EF2B11F00E945602F1
:1008600086E691E00E94560200E010E068EE73E038
:1008700080E090E00E94170101151105B9F30E9474
:10088000B301882399F30E940000F0CFE7ECF1E078
:100890001382128288EE93E0A0E0B0E08483958317
:1008A000A683B78384E091E09183808385EC90E018
:1008B0009587848784EC90E09787868780EC90E02A
:1008C000918B808B81EC90E0938B828B82EC90E01B
:1008D000958B848B86EC90E0978B868B118E128E95
:1008E000138E148E0895EE0FFF1F0590F491E02DE6
:1008F00009949111089581548A5108F4805E855AB3
:100900000895F894FFCF00000000E9014901760145
:100910003602A7018501990101030919110B1B1367
:100920000A1A05070D1D150F1F170E1E25273A2D34
:100930003D355374617274696E672073696E676CBC
:10094000652D62697420646961676E6F7374696391
:100950003A2070756C73657320302E2E3520286414
:100960006F74312E2E646F7436292E000D0A0043E9
:100970006861726163746572206E6F7420666F7552
:100980006E6420E2809420636C656172696E6720FA
:10099000646973706C61792E00446973706C61795D
:1009A000696E672028686172642D636F64656429CD
:1009B0003A200053686966746564206F75743A2044
:0409C00030620000A1
:107E0000112484B714BE81FFF0D085E080938100F7
:107E100082E08093C00088E18093C10086E0809377
:107E2000C20080E18093C4008EE0C9D0259A86E02C
:107E300020E33CEF91E0309385002093840096BBD3
:107E4000B09BFECF1D9AA8958150A9F7CC24DD24C4
:107E500088248394B5E0AB2EA1E19A2EF3E0BF2EE7
:107E6000A2D0813461F49FD0082FAFD0023811F036
:107E7000013811F484E001C083E08DD089C08234E0
:107E800011F484E103C0853419F485E0A6D080C0E4
:107E9000853579F488D0E82EFF2485D0082F10E0AE
:107EA000102F00270E291F29000F111F8ED06801E7
:107EB0006FC0863521F484E090D080E0DECF843638
:107EC00009F040C070D06FD0082F6DD080E0C81688
:107ED00080E7D80618F4F601B7BEE895C0E0D1E017
:107EE00062D089930C17E1F7F0E0CF16F0E7DF06D8
:107EF00018F0F601B7BEE89568D007B600FCFDCFD4
:107F0000A601A0E0B1E02C9130E011968C91119780
:107F100090E0982F8827822B932B1296FA010C0160
:107F200087BEE89511244E5F5F4FF1E0A038BF0790
:107F300051F7F601A7BEE89507B600FCFDCF97BE46
:107F4000E89526C08437B1F42ED02DD0F82E2BD052
:107F50003CD0F601EF2C8F010F5F1F4F84911BD097
:107F6000EA94F801C1F70894C11CD11CFA94CF0C13
:107F7000D11C0EC0853739F428D08EE10CD085E9AC
:107F80000AD08FE07ACF813511F488E018D01DD067
:107F900080E101D065CF982F8091C00085FFFCCF94
:107FA0009093C60008958091C00087FFFCCF809118
:107FB000C00084FD01C0A8958091C6000895E0E648
:107FC000F0E098E1908380830895EDDF803219F02E
:107FD00088E0F5DFFFCF84E1DECF1F93182FE3DFCA
:107FE0001150E9F7F2DF1F91089580E0E8DFEE27F6
:047FF000FF270994CA
:027FFE00040479
:00000001FF
