:100000000C9462000C94A3020C947C020C947F006C
:100010000C947F000C947F000C947F000C94CA0217
:100020000C947F000C947F000C947F000C947F0054
:100030000C947F000C947F000C947F000C947F0044
:100040000C9432020C947F000C947F000C947F007F
:100050000C947F000C947F000C947F000C947F0024
:100060000C947F000C947F00020000000024002705
:10007000002A0000000000250028002B00000000DE
:1000800000230026002900040404040404040402DC
:100090000202020202030303030303010204081025
:1000A00020408001020408102001020408102000F2
:1000B0000000080002010000030407000000000027
:1000C0000000000011241FBECFEFD8E0DEBFCDBF7F
:1000D00011E0A0E0B1E0E0E4FBE002C005900D9289
:1000E000AC33B107D9F721E0ACE3B1E001C01D9218
:1000F000AE35B207E1F70E9426030C949E050C94DE
:100100000000833081F028F4813099F08230A9F02A
:1001100008958730A9F08830C9F08430B1F4809117
:1001200080008F7D03C0809180008F778093800056
:10013000089584B58F7784BD089584B58F7DFBCFF6
:100140008091B0008F778093B00008958091B000C7
:100150008F7DF9CFCF93DF93282F30E0F901E15560
:10016000FF4F8491F901E556FF4FD491F901E9570A
:10017000FF4FC491CC23A1F081110E948100EC2F8C
:10018000F0E0EE0FFF1FE358FF4FA591B491EC9103
:10019000ED2381E090E009F480E0DF91CF910895B4
:1001A00080E090E0FACF1F93CF93DF93282F30E0C9
:1001B000F901E155FF4F8491F901E556FF4FD491C4
:1001C000F901E957FF4FC491CC23A9F0162F8111F3
:1001D0000E948100EC2FF0E0EE0FFF1FED58FF4F63
:1001E000A591B4918FB7F894EC91111108C0D095F6
:1001F000DE23DC938FBFDF91CF911F910895DE2B1B
:10020000F8CFCF93DF9390E0FC01E556FF4F2491A8
:1002100089579F4FFC0184918823D1F090E0880F8B
:10022000991FFC01E759FF4FA591B491FC01ED58CE
:10023000FF4FC591D491623071F49FB7F8943C910F
:10024000822F809583238C93E8812E2B28839FBF58
:10025000DF91CF9108958FB7F894EC912E2B2C93CA
:100260008FBFF6CF3FB7F89480915A0190915B0110
:10027000A0915C01B0915D0126B5A89B05C02F3F00
:1002800019F00196A11DB11D3FBFBA2FA92F982FBC
:100290008827BC01CD01620F711D811D911D42E0B7
:1002A000660F771F881F991F4A95D1F708958F927F
:1002B0009F92AF92BF92CF92DF92EF92FF924B014B
:1002C0005C010E9432016B017C010E9432016C19B9
:1002D0007D098E099F09683E734081059105A8F349
:1002E00021E0821A9108A108B10888EEC80E83E0C7
:1002F000D81EE11CF11C81149104A104B10429F75A
:10030000FF90EF90DF90CF90BF90AF909F908F9035
:100310000895CF9382E00E94AA00C82F83E00E9434
:10032000AA00C81314C080915201909153010997FB
:100330004CF4809152019091530101969093530196
:100340008093520181E080935401CF910895809170
:1003500052019091530118161906A4F78091520189
:10036000909153010197EACF089590910401891368
:100370000BC0E8E6F0E0E4919FEF90930401E130D8
:1003800049F028F0E23061F060E00C94D300109264
:100390006E00FACF90916F009D7F90936F00F4CF25
:1003A000909170009D7F9093700091E09093B000C9
:1003B0009091B100987F94609093B1001092B30037
:1003C000E3CF0F931F93CF93DF93082F162FD42FD4
:1003D000C8E06D2F661F6627661F802F0E94D3001E
:1003E000DD0F61E0812F0E94D30060E0812F0E9429
:1003F000D300C15071F7DF91CF911F910F910895F4
:10040000CF93DF93D0915101C0914F0160E08AE01A
:100410000E94D3004D2F69E088E00E94E1014C2F3B
:1004200069E088E00E94E10161E08AE0DF91CF911C
:100430000C94D3009FEC980F993070F4805D90E09D
:100440000E949605815691098A31910548F48B5F87
:100450009E4FFC0180810895803389F78AE6EFCFB3
:100460008FEF08951F920F920FB60F9211242F93C2
:100470003F938F939F93AF93BF9380915601909139
:100480005701A0915801B09159013091550123E0D5
:10049000230F2D3758F50196A11DB11D209355014D
:1004A0008093560190935701A0935801B09359013E
:1004B00080915A0190915B01A0915C01B0915D0126
:1004C0000196A11DB11D80935A0190935B01A093E9
:1004D0005C01B0935D01BF91AF919F918F913F916E
:1004E0002F910F900FBE0F901F90189526E8230FA5
:1004F0000296A11DB11DD2CF1F920F920FB60F927F
:1005000011242F933F934F935F936F937F938F9318
:100510009F93AF93BF93EF93FF93E0910201F0910C
:1005200003010995FF91EF91BF91AF919F918F9139
:100530007F916F915F914F913F912F910F900FBEDF
:100540000F901F9018951F920F920FB60F921124C3
:100550002F933F934F935F936F937F938F939F93CB
:10056000AF93BF93EF93FF93E0910001F0910101EE
:100570000995FF91EF91BF91AF919F918F917F91DD
:100580006F915F914F913F912F910F900FBE0F9000
:100590001F9018951F920F920FB60F9211242F9350
:1005A0003F934F935F936F937F938F939F93AF93FB
:1005B000BF93EF93FF938091410190914201A091ED
:1005C0004301B0914401892B8A2B8B2BD1F190915F
:1005D0003C01E0913D01F0913E01808189278083BB
:1005E0008091410190914201A0914301B091440159
:1005F000181619061A061B069CF480914101909169
:100600004201A0914301B09144010197A109B109B0
:100610008093410190934201A0934301B093440120
:10062000FF91EF91BF91AF919F918F917F916F91CA
:100630005F914F913F912F910F900FBE0F901F90A0
:100640001895809104010E94B501EACF789484B591
:10065000826084BD84B5816084BD85B5826085BDBE
:1006600085B5816085BD80916E00816080936E004C
:10067000109281008091810082608093810080913E
:1006800081008160809381008091800081608093EF
:1006900080008091B10084608093B1008091B000AF
:1006A00081608093B00080917A00846080937A00AA
:1006B00080917A00826080937A0080917A008160D4
:1006C00080937A0080917A00806880937A001092FB
:1006D000C10061E088E00E94010161E089E00E94C0
:1006E000010161E08AE00E94010160E08AE00E946D
:1006F000D30061E084E00E94010160E084E00E9498
:10070000D30061E085E00E94010161E085E00E9484
:10071000D30060E08AE00E94D30040E069E088E016
:100720000E94E10140E069E088E00E94E10161E0AF
:100730008AE00E94D30062E370E080E090E00E94D3
:10074000570162E082E00E94010162E083E00E94C2
:10075000010189E891E0909301018093000180916B
:1007600069008C7F816080936900E89A61E08DE088
:100770000E94010160E08DE00E94D30062E08EE003
:100780000E94010162E08FE00E94010162E080E1CD
:100790000E940101CEE2D1E0199161E0812F0E9417
:1007A000010161E0812F0E94D30081E0C233D807AC
:1007B00099F761E081E10E94010160E081E10E941E
:1007C000D30010924F0110924E01109251010E94DD
:1007D000000248E9642E40E0742ECCEAD0E0882480
:1007E0008A94982C5401809154018823C9F0F8947C
:1007F00080915201909153011092540178948A3063
:10080000910514F089E090E097FF02C090E080E04D
:100810008E5C9E4FFC018081809351010E940002FA
:100820000EE211E0512CF80131908F0160E0832D30
:100830000E94D3008FE090E00197F1F73BE2E32EB6
:1008400031E0F32E412CF701D1907F018D2D0E94D4
:10085000AA00892B41F56CE070E080E090E00E94F6
:1008600057018D2D0E94AA006C0161E0832D0E942A
:10087000D300CD28C1F4E52DEE0FE50D4E0EE42D8D
:10088000F0E0E15EFE4F108100915001111118C09F
:1008900060E08DE00E94D300809150018823B1F187
:1008A0001092500133C04394F3E04F12CCCF61E07B
:1008B000832D0E94D300539484E05812B4CFE8CF24
:1008C00061E08DE00E94D300101701F110935001F8
:1008D0008FEC810F8930A8F580E3810F0E941A0206
:1008E00080934F0180ED810F91E08A3008F090E015
:1008F00090934E018A3088F5E12F110FFF0BEE5FC8
:10090000FE4F8081809351010E94000280914E0130
:10091000882361F000914F0111E6812F0E941A0295
:10092000801709F4D4C01F5F1B36B9F780914D01C1
:10093000882309F4B6C081E10E94B50110924D01EF
:10094000B0C0103311F48AE6C9CF86E31A3241F2FF
:100950008CE0133229F280E0C3CF10925101D4CF42
:100960008F3F09F09BC081E180930401E8E6F0E04D
:1009700014911F3F09F492C0113019F150F0123058
:1009800009F43CC017FD8AC061E081E10E940101C9
:10099000B3C014BC15BC84B5826084BD85B58160CC
:1009A00085BDF3018491E82FF0E0EE0FFF1FED58B5
:1009B000FF4F85919491FE0184918093400110E056
:1009C00094C0109280001092810080918100886014
:1009D0008093810080918100816080938100F30188
:1009E0008491E82FF0E0EE0FFF1FED58FF4F859147
:1009F0009491FE01849180933F0177C01092B000E2
:100A00001092B1008091B00082608093B00080911C
:100A1000B10081608093B100F3018491E82FF0E090
:100A2000EE0FFF1FED58FF4F8591949190933E017B
:100A300080933D01FE01849180933C0156C085B5B1
:100A4000887F836085BD8CE787BD80924901909245
:100A50004A01A0924B01B0924C0180916E008260DD
:100A600080936E001BC0113051F580918100887F0A
:100A70008160809381008FE39FE190938900809350
:100A800088008092450190924601A0924701B09261
:100A9000480180916F00826080936F0081E08093B5
:100AA0004D016AE070E080E090E00E945701E0E0D4
:100AB000F0E0EF2B09F497CE0E94000094CE1230A4
:100AC00021F01111EBCF8FE3BFCF8FE31FC08091D7
:100AD0004D018111E6CF80910401813109F040CFB1
:100AE000E8E6F0E0149117FDD9CF61E081E10E94C2
:100AF0000101112309F4A3CF123009F0B4CF809182
:100B0000B100887F83608093B10089EF8093B30048
:100B10008092410190924201A0924301B09244011F
:100B200080917000826080937000B8CF9111089519
:100B300081548A5108F4805E855A0895F894FFCF55
:100B4000B401B401FF01030919110B1B130A1A05A3
:100B5000070D1D150F1F170E1E25273A2D3D353188
:100B600032333435363738392A30230E0F10060722
:0C0B70000B0C3F065B4F666D7D077F6F2E
:00000001FF
