:100000000C9463000C9424040C94FD030C948B005A
:100010000C948B000C948B000C948B000C944B0470
:100020000C948B000C948B000C948B000C948B0024
:100030000C948B000C948B000C948B000C948B0014
:100040000C94B3030C948B000C94CD040C94A70473
:100050000C948B000C948B000C948B000C948B00F4
:100060000C948B000C948B000200000000240027ED
:10007000002A0000000000250028002B00000000DE
:1000800000230026002900040404040404040402DC
:100090000202020202030303030303010204081025
:1000A00020408001020408102001020408102000F2
:1000B0000000080002010000030407000000000027
:1000C00000000000F50711241FBECFEFD8E0DEBF0F
:1000D000CDBF12E0A0E0B1E0E8EAF0E102C0059097
:1000E0000D92A835B107D9F723E0A8E5B2E001C029
:1000F0001D92A731B207E1F710E0C3E6D0E004C0DB
:100100002197FE010E944408C236D107C9F70E9418
:10011000FF040C9452080C940000833081F028F402
:10012000813099F08230A9F008958730A9F08830A5
:10013000C9F08430B1F4809180008F7D03C080913C
:1001400080008F7780938000089584B58F7784BD79
:10015000089584B58F7DFBCF8091B0008F77809319
:10016000B00008958091B0008F7DF9CFCF93DF93D9
:10017000282F30E0F901E155FF4F8491F901E55650
:10018000FF4FD491F901E957FF4FC491CC23A1F05F
:1001900081110E948D00EC2FF0E0EE0FFF1FE3585D
:1001A000FF4FA591B491EC91ED2381E090E009F42B
:1001B00080E0DF91CF91089580E090E0FACF1F9327
:1001C000CF93DF93282F30E0F901E155FF4F849161
:1001D000F901E556FF4FD491F901E957FF4FC4915A
:1001E000CC23A9F0162F81110E948D00EC2FF0E096
:1001F000EE0FFF1FED58FF4FA591B4918FB7F89404
:10020000EC91111108C0D095DE23DC938FBFDF91F4
:10021000CF911F910895DE2BF8CFCF93DF9390E01D
:10022000FC01E556FF4F249189579F4FFC018491B3
:100230008823D1F090E0880F991FFC01E759FF4F08
:10024000A591B491FC01ED58FF4FC591D491623056
:1002500071F49FB7F8943C91822F809583238C93FF
:10026000E8812E2B28839FBFDF91CF9108958FB710
:10027000F894EC912E2B2C938FBFF6CF3FB7F894C8
:100280008091760290917702A0917802B0917902E4
:1002900026B5A89B05C02F3F19F00196A11DB11DE1
:1002A0003FBFBA2FA92F982F8827BC01CD01620F1D
:1002B000711D811D911D42E0660F771F881F991FD8
:1002C0004A95D1F708958F929F92AF92BF92CF92A5
:1002D000DF92EF92FF924B015C010E943E016B01A5
:1002E0007C010E943E016C197D098E099F09683EC0
:1002F000734081059105A8F321E0821A9108A108B5
:10030000B10888EEC80E83E0D81EE11CF11C8114F0
:100310009104A104B10429F7FF90EF90DF90CF90F2
:10032000BF90AF909F908F900895CF9382E00E94EE
:10033000B600C82F83E00E94B600C81314C0809195
:100340006E0290916F0209974CF480916E02909129
:100350006F02019690936F0280936E0281E080930A
:100360007002CF91089580916E0290916F021816DD
:100370001906A4F780916E0290916F020197EACF5F
:1003800008959091040189130BC0E8E6F0E0E49130
:100390009FEF90930401E13049F028F0E23061F0E2
:1003A00060E00C94DF0010926E00FACF90916F0025
:1003B0009D7F90936F00F4CF909170009D7F9093FC
:1003C000700091E09093B0009091B100987F94609C
:1003D0009093B1001092B300E3CFAF92BF92CF924F
:1003E000DF92EF92FF920F931F93CF93DF936C01F5
:1003F0007B018B01040F151FEB015E01AE18BF08D6
:10040000C017D10759F06991D601ED91FC91019087
:10041000F081E02DC6010995892B79F7C501DF919F
:10042000CF911F910F91FF90EF90DF90CF90BF90F1
:10043000AF900895FC01538D448D252F30E0842F1B
:1004400090E0821B930B541710F0CF9608950197FC
:100450000895FC01918D828D981761F0A28DAE0FE9
:10046000BF2FB11D5D968C91928D9F5F9F73928F70
:1004700090E008958FEF9FEF0895FC01918D828D9C
:10048000981731F0828DE80FF11D858D90E0089569
:100490008FEF9FEF0895FC01918D228D892F90E0C1
:1004A000805C9F4F821B91098F73992708958AE77B
:1004B00092E00E944B0221E0892B09F420E0822F78
:1004C000089580E090E0892B29F00E945702811165
:1004D0000C9400000895FC01A48DA80FB92FB11D44
:1004E000A35ABF4F2C91848D90E001968F7399276A
:1004F000848FA689B7892C93A089B1898C91837048
:1005000080648C93938D848D981306C00288F38940
:10051000E02D80818F7D80830895EF92FF920F936D
:100520001F93CF93DF93EC0181E0888F9B8D8C8D9F
:1005300098131AC0E889F989808185FF15C09FB793
:10054000F894EE89FF896083E889F9898081837056
:10055000806480839FBF81E090E0DF91CF911F9105
:100560000F91FF90EF900895F62E0B8D10E00F5F26
:100570001F4F0F731127E02E8C8D8E110CC00FB6FC
:1005800007FCFACFE889F989808185FFF5CFCE0194
:100590000E946B02F1CFEB8DEC0FFD2FF11DE35AA2
:1005A000FF4FF0829FB7F8940B8FEA89FB89808117
:1005B0008062CFCFCF93DF93EC01888D8823B9F091
:1005C000AA89BB89E889F9898C9185FD03C080815E
:1005D00086FD0DC00FB607FCF7CF8C9185FFF2CFDB
:1005E000808185FFEDCFCE010E946B02E9CFDF91C4
:1005F000CF910895FC0101900020E9F73197AF01F8
:10060000481B590BBC018AE792E00C94ED018F92D4
:100610009F92AF92BF920F931F93CF93DF93CDB76B
:10062000DEB7A1970FB6F894DEBF0FBECDBF19A2FB
:10063000423008F44AE08E010F5D1F4F842E912C4A
:10064000B12CA12CA50194010E942208E62FB9012A
:10065000CA01EA30F4F4E05DD801EE938D01232B5A
:10066000242B252B79F790E080E0109719F0CD012D
:100670000E94FA02A1960FB6F894DEBF0FBECDBF5E
:10068000DF91CF911F910F91BF90AF909F908F906E
:100690000895E95CE1CFCF93DF93682F8AE792E07A
:1006A0000E948D02EC018FE791E00E94FA028C0F0C
:1006B0009D1FDF91CF9108950F931F93CF93DF93E9
:1006C000082F162FD42FC8E06D2F661F6627661FD0
:1006D000802F0E94DF00DD0F61E0812F0E94DF008C
:1006E00060E0812F0E94DF00C15071F7DF91CF9150
:1006F0001F910F910895CF93DF93D0916D02C09118
:10070000580260E08AE00E94DF004D2F69E088E037
:100710000E945C034C2F69E088E00E945C0361E06A
:100720008AE00E94DF0082E891E00E94FA026D2FC9
:1007300070E090E080E042E00E94070381E991E0F0
:100740000E94FA026C2F70E090E080E042E00E948C
:10075000070383EA91E00E94FA028FE791E0DF91BC
:10076000CF910C94FA021F920F920FB60F921124A0
:100770002F933F938F939F93AF93BF938091720278
:1007800090917302A0917402B09175023091710240
:1007900023E0230F2D3758F50196A11DB11D20939D
:1007A00071028093720290937302A0937402B093CB
:1007B00075028091760290917702A0917802B091B3
:1007C00079020196A11DB11D809376029093770264
:1007D000A0937802B0937902BF91AF919F918F91CE
:1007E0003F912F910F900FBE0F901F90189526E804
:1007F000230F0296A11DB11DD2CF1F920F920FB6EB
:100800000F9211242F933F934F935F936F937F9396
:100810008F939F93AF93BF93EF93FF93E091020168
:10082000F09103010995FF91EF91BF91AF919F91D5
:100830008F917F916F915F914F913F912F910F9089
:100840000FBE0F901F9018951F920F920FB60F9228
:1008500011242F933F934F935F936F937F938F93C5
:100860009F93AF93BF93EF93FF93E0910001F091BB
:1008700001010995FF91EF91BF91AF919F918F91E8
:100880007F916F915F914F913F912F910F900FBE8C
:100890000F901F9018951F920F920FB60F92112470
:1008A0002F933F934F935F936F937F938F939F9378
:1008B000AF93BF93EF93FF9380915F02909160029B
:1008C000A0916102B0916202892B8A2B8B2BD1F10E
:1008D00090915A02E0915B02F0915C02808189273D
:1008E000808380915F0290916002A0916102B0913B
:1008F0006202181619061A061B069CF480915F0204
:1009000090916002A0916102B09162020197A109E9
:10091000B10980935F0290936002A0936102B0934B
:100920006202FF91EF91BF91AF919F918F917F9163
:100930006F915F914F913F912F910F900FBE0F904C
:100940001F901895809104010E94C101EACF1F9267
:100950000F920FB60F9211242F933F934F935F93F3
:100960006F937F938F939F93AF93BF93EF93FF9377
:100970008AE792E00E946B02FF91EF91BF91AF91E5
:100980009F918F917F916F915F914F913F912F91A7
:100990000F900FBE0F901F9018951F920F920FB6D9
:1009A0000F9211242F938F939F93EF93FF93E091D6
:1009B0008A02F0918B028081E0919002F091910285
:1009C00082FD1BC09081809193028F5F8F73209175
:1009D0009402821741F0E0919302F0E0E658FD4F57
:1009E000958F80939302FF91EF919F918F912F911B
:1009F0000F900FBE0F901F9018958081F4CF7894C0
:100A000084B5826084BD84B5816084BD85B5826013
:100A100085BD85B5816085BD80916E0081608093C4
:100A20006E0010928100809181008260809381002D
:100A3000809181008160809381008091800081603D
:100A4000809380008091B10084608093B100809198
:100A5000B00081608093B00080917A0084608093C0
:100A60007A0080917A00826080937A0080917A0087
:100A7000816080937A0080917A00806880937A0008
:100A80001092C100E0918A02F0918B0282E0808393
:100A9000E0918602F09187021082E0918802F09145
:100AA000890280E1808310929202E0918E02F0919F
:100AB0008F0286E08083E0918C02F0918D0280812C
:100AC00080618083E0918C02F0918D02808188604A
:100AD0008083E0918C02F0918D0280818068808318
:100AE000E0918C02F0918D0280818F7D808361E0A6
:100AF00088E00E940D0161E089E00E940D0161E043
:100B00008AE00E940D0160E08AE00E94DF0061E05F
:100B100084E00E940D0160E084E00E94DF0061E05B
:100B200085E00E940D0161E085E00E94DF0060E049
:100B30008AE00E94DF0040E069E088E00E945C03F8
:100B400040E069E088E00E945C0361E08AE00E9486
:100B5000DF0062E370E080E090E00E94630162E009
:100B600082E00E940D0162E083E00E940D0185E9B0
:100B700091E09093010180930001809169008C7F46
:100B8000816080936900E89A61E08DE00E940D0128
:100B900060E08DE00E94DF0062E08EE00E940D01C7
:100BA00062E08FE00E940D0162E080E10E940D0191
:100BB000C6E2D1E0199161E0812F0E940D0161E050
:100BC000812F0E94DF0021E0CA32D20799F761E04D
:100BD00081E10E940D0160E081E10E94DF0080EC74
:100BE00091E00E94FA028FE791E00E94FA0281E60A
:100BF00090E00E944A08C0978B34910530F48C5CD9
:100C00009E4FFC01C081CF3F49F48AEF91E00E94E2
:100C1000FA028FE791E00E94FA02C0E084E292E0DB
:100C20000E94FA0281E60E944B03C0935802109280
:100C3000590210926D020E947B0344244A94542C62
:100C400032010CEA10E0809170028823D9F1F89407
:100C5000C0906E02D0906F02109270027894C6011C
:100C6000FAE0CF16D10414F089E090E097FF02C0BB
:100C700090E080E0865D9E4FFC01808180936D0254
:100C80000E947B038EE392E00E94FA020D2C000C7E
:100C9000EE08FF084AE0C701B601F7FE0DC06DE29D
:100CA0008AE792E00E948D0266277727CB016C19B4
:100CB0007D098E099F094AE00E9407038FE791E0B2
:100CC0000E94FA0246E2E42E41E0F42EC0E0F70171
:100CD00031907F0160E0832D0E94DF008FE090E083
:100CE0000197F1F733E2C32E31E0D32E812CF601C8
:100CF000B1906F018B2D0E94B600892B41F56CE0FD
:100D000070E080E090E00E9463018B2D0E94B600AD
:100D10005C0161E0832D0E94DF00AB28C1F4EC2F61
:100D2000EE0FEC0F8E0EE82DF0E0E95EFE4FC08175
:100D3000E0906C02C11118C060E08DE00E94DF00FD
:100D400080916C02882369F110926C022AC083940E
:100D5000F3E08F12CCCF61E0832D0E94DF00CF5FE4
:100D6000C43009F0B4CFE8CF61E08DE00E94DF002D
:100D7000EC16B9F0C0936C028AE492E00E94FA0289
:100D80008C2F0E944B0380ED8C0F8A3050F4EC2F97
:100D9000CC0FFF0BE650FF4F808180936D020E94C5
:100DA0007B0380915902882309F415C1D090580221
:100DB000C1E3D0E0CE010E944A08C0978B34910570
:100DC00008F046C08C5C9E4FFC018081D81691F0E3
:100DD0002196CA33D10571F780E390E00E944A085A
:100DE000C0978B349105B0F58C5C9E4FFC018081DF
:100DF000D812F1C080916B028111D2C080910401A0
:100E0000813151F5E8E6F0E0C491C7FDC6C061E06C
:100E100081E10E940D01CC2309F490C0C23009F099
:100E2000A1C08091B100887F83608093B10089EF79
:100E30008093B30040925F02509260026092610220
:100E40007092620280917000826080937000A5C0F1
:100E50008FEFBCCF8FEFCCCF8F3F09F09EC081E1E9
:100E600080930401E8E6F0E0C491CF3F09F495C017
:100E7000C13021F150F0C23009F43EC0C7FD8DC031
:100E800061E081E10E940D01C9CF14BC15BC84B59D
:100E9000826084BD85B5816085BDE8E9F0E084911C
:100EA000E82FF0E0EE0FFF1FED58FF4F8591949172
:100EB000F801849180935E02C0E0A9CF1092800077
:100EC00010928100809181008860809381008091E0
:100ED0008100816080938100E8E9F0E08491E82F4F
:100EE000F0E0EE0FFF1FED58FF4F85919491F80150
:100EF000849180935D028BCF1092B0001092B1006C
:100F00008091B00082608093B0008091B1008160D8
:100F10008093B100E8E9F0E08491E82FF0E0EE0F73
:100F2000FF1FED58FF4F8591949190935C02809341
:100F30005B02F801849180935A0269CF85B5887F5E
:100F4000836085BD8CE787BD40926702509268023E
:100F50006092690270926A0280916E008260809352
:100F60006E001BC0C13079F580918100887F81605F
:100F7000809381008FE39FE19093890080938800A4
:100F8000409263025092640260926502709266021F
:100F900080916F00826080936F0081E080936B028C
:100FA0006AE070E080E090E00E946301E0E0F0E041
:100FB000EF2B09F448CE0E945702882309F443CE50
:100FC0000E9400003ECEC23021F0C111E6CF8FE377
:100FD000BACF8FE32DCF80916B02882309F381E193
:100FE0000E94C10110926B02DBCFEAE7F2E01382AC
:100FF000128288EE93E0A0E0B0E084839583A6831C
:10100000B78389E091E09183808385EC90E09587B8
:10101000848784EC90E09787868780EC90E0918BC2
:10102000808B81EC90E0938B828B82EC90E0958BAF
:10103000848B86EC90E0978B868B118E128E138EAC
:10104000148E0895A1E21A2EAA1BBB1BFD010DC030
:10105000AA1FBB1FEE1FFF1FA217B307E407F50768
:1010600020F0A21BB30BE40BF50B661F771F881F44
:10107000991F1A9469F760957095809590959B01DA
:10108000AC01BD01CF010895EE0FFF1F0590F49153
:10109000E02D09949111089581548A5108F4805EDD
:0810A000855A0895F894FFCF72
:1010A800C001C001FF000000008D02ED011A02DA44
:1010B800024B0229023D0231323334353637383992
:1010C8002A30230E0F1006070B0C3F065B4F666D88
:1010D8007D077F6F1A01030919110B1B130AFFFF04
:1010E800FFFFFFFFFFFFFFFFFFFFFFFFFFFFFFFF08
:1010F800FFFFFFFFFFFFFFFFFFFFFFFFFFFFFFFFF8
:10110800FFFFFFFFFF01030919110B1B130A1A0543
:10111800070D1D150F1F170E1E25273A2D3D350DDE
:101128000A004E756D626572207265673A203062FA
:10113800002020427261696C6C65207265673A20F4
:1011480030620020202873656E74206E756D6265AC
:1011580072207468656E20627261696C6C65290022
:101168005374617274696E672073696E676C652D5C
:1011780062697420646961676E6F737469633A2089
:1011880070756C73657320302E2E352028646F744B
:10119800312E2E646F7436292E00436861726163A4
:1011A800746572206E6F7420666F756E6420E280BD
:1011B8009420636C656172696E6720646973706CF2
:1011C80061792E00446973706C6179696E672028B3
:1011D800686172642D636F646564293A2000456E06
:1011E800636F646572202D3E20004B657920707214
:0811F80065737365643A200081
:00000001FF
